:10000000D0230120F9020000F5020000F5020000F3
:10001000F5020000F5020000F502000000000000FB
:10002000000000000000000000000000216D000042
:10003000F502000000000000C16D0000256E000008
:10004000F5020000F5020000F5020000F5020000D4
:10005000F5020000F5020000F5020000F5020000C4
:10006000F5020000F5020000F502000089380000EA
:10007000C5350000D1350000DD350000E935000050
:10008000F5020000F5020000F5020000F502000094
:10009000F5020000F5020000F5020000F502000084
:1000A000F5020000F5020000F5020000F502000074
:1000B000F5020000F5020000F5020000F502000064
:1000C000F5020000F5020000F5020000F502000054
:1000D000F5020000F5020000F5020000F502000044
:1000E000F5020000F5020000F5020000F502000034
:1000F000000000008D3700008D410000A14100008C
:10010000B5410000C9410000F5020000F502000001
:10011000F5020000F5020000F5020000F502000003
:10012000F5020000F5020000F5020000F5020000F3
:10013000F5020000F5020000F5020000F5020000E3
:10014000F5020000F5020000F5020000F5020000D3
:10015000F5020000F5020000F5020000F5020000C3
:10016000F5020000F5020000F5020000F5020000B3
:10017000F5020000F5020000F5020000F5020000A3
:10018000F5590000015A00000D5A0000195A0000EC
:10019000F5020000F5020000F5020000F502000083
:1001A000F5020000F5020000F5020000F502000073
:1001B000F5020000F5020000F5020000F502000063
:1001C000F5020000F5020000F5020000F502000053
:1001D000F5020000F5020000F5020000F502000043
:1001E000F5020000F5020000F5020000F502000033
:1001F000F5020000F5020000F5020000994700003A
:10020000AD470000F5020000F502000011370000C4
:10021000F5020000F5020000F5020000F502000002
:10022000F5020000F5020000F5020000F5020000F2
:10023000F5020000F5020000F5020000F5020000E2
:10024000F5020000F5020000F5020000F5020000D2
:10025000F5020000F5020000F5020000F5020000C2
:10026000F502000010B5054C237833B9044B13B1E7
:100270000448AFF300800123237010BDA0000020CC
:1002800000000000C49A00000C4B43B10C480D491B
:1002900010B5AFF300800C48036823B910BD0A48BD
:1002A000036833B97047094B002BF7D0BDE8104005
:1002B0001847064B002BF5D0184700BF0000000080
:1002C000C49A0000A4000020C49A000000000000AE
:1002D00008B5044B9847044B9847044B9847044B88
:1002E000984708BD9D0B000031930000816A000013
:1002F00089050000FEE7000008B51C4B1C4A9A4225
:1003000010D01C4B194A9A420CD2013B9B1A23F085
:10031000030304331344164951F8040B42F8040B49
:100320009A42F9D1144B154A9A420AD2013B9B1AC0
:1003300023F0030304331344002142F8041B9342C7
:10034000FBD10F4B0F4A22F07F029A60D3F888202E
:1003500042F47002C3F88820BFF34F8FBFF36F8F52
:10036000094B9847094B9847FEE700BF0000002063
:10037000C49A00009C000020D0230020A000002090
:1003800000ED00E0000000004D96000035920000F6
:1003900010B504460A4B984701280FD020B1022817
:1003A0000CBF0220012010BD2046064B984700F0EC
:1003B0000300002814BF0020022010BD032010BD40
:1003C00091600000D966000038B504460D46044B24
:1003D00098474000013828602046024B984738BDB6
:1003E000FD6600009103000010B504460A4B9847D3
:1003F000032806D12046084B9847032801D1012045
:1004000010BD38B92046054B9847002814BF04207A
:10041000002010BD012010BD9103000021670000E5
:1004200008B5054B984720B102280CBF03200120D6
:1004300008BD002008BD00BF910300002DE9F04F6A
:1004400083B08346884614461D4601A9174B98473A
:100450002E19019B01339E4201D9F3201FE00DB3F9
:10046000134FDFF85090DFF850A00FE00121404615
:10047000C84798B9D047003018BF012000E00220DB
:1004800090B9013408F50078A64208D0012221462F
:100490005846B8470028E9D00228F0D0FF2003B022
:1004A000BDE8F08F0020FAE7FF20F8E7C90300005D
:1004B0009967000071680000BD6800002DE9F04FE9
:1004C00083B08346884614461D4601A9174B9847BA
:1004D0002E19019B01339E4201D9F3201FE00DB379
:1004E000134FDFF85090DFF850A00FE00121404695
:1004F000C84798B9D047003018BF012000E002205B
:1005000090B9013408F50078A64208D001222146AE
:100510005846B8470028E9D00228F0D0FF2003B0A1
:10052000BDE8F08F0020FAE7FF20F8E7C9030000DC
:100530002D690000CD690000196A000010B582B075
:10054000144603291AD8DFE801F012070F0201232D
:100550001360002002B010BD01A9094B9847019B10
:10056000013323600020F5E700201070F2E7054B0F
:10057000984700280CBF0020E320EBE7F320E9E7D1
:10058000C9030000910300007047000008B5402235
:100590003B4BC3F890203B4A536943F4806353615B
:1005A000394B4FF480325A603849996202F1404227
:1005B00002F101129A6293F8502002F0FB0283F8D4
:1005C000502093F8502002F0FE0242F0010283F81E
:1005D000502093F8382002F0F00283F838204FF4CE
:1005E00000325A6099622A4A9A6293F8512002F0C6
:1005F000FB0283F8512093F8512002F0FE0242F0F2
:10060000010283F8512093F8382002F00F0283F89A
:1006100038204FF480225A6099621E4A9A6293F8F9
:10062000522002F0FB0283F8522093F8522002F08D
:10063000FE0242F0010283F8522093F8392002F0C2
:10064000F00283F839204FF400225A609962124A6E
:100650009A6293F8532002F0FB0283F8532093F838
:10066000532002F0FE0242F0010283F8532093F877
:10067000392002F00F0283F83920084B984708BD53
:10068000001C0040000800400080004100000240C3
:10069000020002C0040002C0080002C029240000B9
:1006A000024A536943F400735361704700080040E5
:1006B00008B5034B984703490348044B984708BDC6
:1006C000A10600000024004040160020592300002D
:1006D000364B10229A60364999624FF04041996238
:1006E0005A6193F8442002F0FE0242F0010283F8BE
:1006F000442093F8322002F0F00242F0030283F823
:10070000322020225A6002F1804202F500329A62C1
:100710002848986293F8452002F0FB0283F84520B0
:1007200093F8452002F0FE0242F0010283F84520D2
:1007300093F8322002F00F0242F0300283F83220A8
:1007400040225A6002F1804202F500329A629862B9
:1007500093F8462002F0FB0283F8462093F84620E7
:1007600002F0FE0242F0010283F8462093F83320A3
:1007700002F0F00242F0030283F8332080229A60F4
:100780000D48986299625A6193F8472002F0FE0280
:1007900042F0010283F8472093F8332002F00F0261
:1007A00042F0300283F83320704700BF00800041E0
:1007B00010000040000002C080000040064B4022B4
:1007C000C3F89C204322C3F88C20044A536943F4A5
:1007D00080535361704700BF001C00400008004078
:1007E00010B5054B98472023044A05490548064C97
:1007F000A047064B984710BDBD070000BC00002075
:1008000000300040DC150020E12A0000D106000085
:10081000F0B45E4B4FF4001098604FF080429A6243
:100820005B4C9C62586193F8551001F0FB0183F812
:10083000551093F8551001F0FE0141F0010183F8C5
:10084000551093F83A1001F00F0141F0800183F840
:100850003A104FF480159D609A624E4E9E625D6123
:1008600093F8541001F0FB0183F8541093F85410DE
:1008700001F0FE0141F0010183F8541093F83A10A1
:1008800001F0F00141F0080183F83A104FF48021A3
:10089000C3F88810C3F8A8203F4FC3F8A870C3F866
:1008A000941093F8D21001F0FB0183F8D21093F862
:1008B000D21001F0FE0141F0010183F8D21093F84B
:1008C000B91001F0F00141F0080183F8B9104FF4BC
:1008D0000021C3F88810C3F8A8200437C3F8A87013
:1008E000C3F8941093F8D31001F0FB0183F8D310F0
:1008F00093F8D31001F0FE0141F0010183F8D31009
:1009000093F8B91001F00F0141F0800183F8B9109C
:10091000C3F88850C3F8A820C3F8A860C3F894505F
:1009200093F8D41001F0FB0183F8D41093F8D4109D
:1009300001F0FE0141F0010183F8D41093F8BA10E0
:1009400001F0F00141F0080183F8BA10C3F8880003
:10095000C3F8A820C3F8A840C3F8940093F8D520A2
:1009600002F0FB0283F8D52093F8D52002F0FE02B6
:1009700042F0010283F8D52093F8BA2002F00F026A
:1009800042F0800283F8BA20F0BC7047008000413A
:10099000200000C0100000C0040000C0054A136918
:1009A00043F480331361044B4022C3F83821C3F869
:1009B0008C20704700080040001C004008B5054B23
:1009C00098474FF08C410448044B9847044B984794
:1009D00008BD00BF9D09000028160020A1250000C9
:1009E00011080000084A92F8C93003F0FE0343F0F2
:1009F000010382F8C93092F8B43003F00F0343F0DA
:100A0000400382F8B430704700800041044AD36943
:100A100043F02003D3614022024BC3F8F820704713
:100A200000080040001C004008B5064B9847064BE4
:100A30009847064B9847024605490648064B984793
:100A400008BD00BF0D0A0000E50900009347000043
:100A500000140042C01500204D280000084A92F8FA
:100A6000CF3003F0FE0343F0010382F8CF3092F859
:100A7000B73003F00F0343F0400382F8B7307047FC
:100A800000800041044AD36943F04003D36140220F
:100A9000024BC3F8F820704700080040001C0040DB
:100AA00008B5064B9847064B9847064B98470246B1
:100AB00005490648064B984708BD00BF850A000057
:100AC0005D0A000093470000001800425C160020F9
:100AD0004D2800001E4B4FF080729A604FF080410D
:100AE00099621C4898625A6193F8582002F0FB0200
:100AF00083F8582093F8582002F0FE0242F00102D9
:100B000083F8582093F83C2002F0F00242F00702EC
:100B100083F83C204FF000729A6099620E49996206
:100B20005A6193F8592002F0FB0283F8592093F898
:100B3000592002F0FE0242F0010283F8592093F896
:100B40003C2002F00F0242F0700283F83C20704714
:100B500000800041000100C0000200C04122074B9C
:100B6000C3F8A820A3F5A0531A6942F480621A6161
:100B70009A6942F001029A61704700BF001C004070
:100B800008B5034B9847034B9847034B984708BD5C
:100B90005D0B0000B92E0000D50A000038B5234BCC
:100BA0009847234B9847234B9847234B9847234B11
:100BB0009847234B9847234B9847234B9847234B01
:100BC0004FF48021C3F808114FF08042C3F8282168
:100BD0001F4AC3F8282193F8522102F0FE0283F83D
:100BE00052211024C3F888401A4AC3F8A8204FF0B5
:100BF0004045C3F8A85093F8C42002F0FE0283F8E1
:100C0000C4202020C3F88800134AC3F8A820C3F8E2
:100C1000A85093F8C52002F0FE0283F8C520C3F85F
:100C20009440C3F89400C3F8181138BD6533000030
:100C3000810B00008D050000B1060000E1070000F7
:100C4000BD090000290A0000A10A0000008000413F
:100C5000040000C010000040200000403AB10138FC
:100C60008A1811F8013B00F8013F9142F9D1704711
:100C700022B1821800F8011B8242FBD17047CA7E64
:100C80008B7E43EA02230278032A01D0184670477C
:100C9000487D0A7D42EA002243EA0243F6E700006B
:100CA00010B40468F4B12178202911D93A2922D04E
:100CB000224612F8013F202B0CD93A2BF9D13039BA
:100CC000631C9A4211D1042912D80234046005E051
:100CD0000B4622463A2BF2D0084B197808465DF8AD
:100CE000044B70474FF0FF31F8E74FF0FF31F5E765
:100CF0004FF0FF31F2E72246E1E700BFDC000020C1
:100D00002DE9F843037913B90020BDE8F8830446C0
:100D1000056B00F1340701232A4639464078134E0B
:100D2000B047D0B900232371636AEB1AE26993429A
:100D300016D2E678012E16D94FF00109DFF82C8083
:100D4000E3691D444B462A4639466078C047013E58
:100D5000012EF5D10020BDE8F8830120BDE8F8831D
:100D60000020BDE8F8830020BDE8F883BD04000042
:100D7000F8B5036B8B4215D004460D460A4B9847D5
:100D8000064608B13046F8BD01232A4604F1340175
:100D90006078064FB84700281CBF01264FF0FF358A
:100DA0002563EFE70026EDE7010D00003D0400009C
:100DB00010B50446002303714FF0FF3303631D4B4E
:100DC000984708B1032010BD94F8332294F83232CA
:100DD00043EA02231BB2184A934201D0022010BDFD
:100DE00094F86D2094F86C301B0443EA026394F885
:100DF0006A20134394F86B2043EA022323F07F43D5
:100E00000E4A934213D094F8893094F88800000475
:100E100040EA036094F88630184394F8873040EA3B
:100E2000032020F07F40801A18BF012010BD002051
:100E300010BD00BF710D000055AAFFFF46415400D0
:100E4000B0B108B50368ABB1197809B9092008BD7C
:100E5000D9888288914201D0092008BD5878064B74
:100E6000984700F0010000280CBF0020092008BDB1
:100E700009207047092008BD210400002DE9F04336
:100E800085B0064617460023036008469C4B9847EA
:100E9000051EC0F2A4819B4B03EB85035C68002C0C
:100EA00000F0A181346023787BB16078964B98473D
:100EB00010F0010F09D1002F00F0978100F004001D
:100EC00000280CBF00200A208AE100232370E8B22A
:100ED00060708E4B984710F0010F01D003207FE126
:100EE00027B110F0040F01D00A2079E1002120463B
:100EF000874B98470346012806D00026032B00F0B5
:100F00007681A3B30D206BE123466D4604F14000CA
:100F10006946002705E03A4641F8042B1033834226
:100F200012D093F8F621002AF5D093F8FD6193F8DA
:100F3000FC21120442EA066293F8FA61324393F804
:100F4000FB6142EA0622E7E704AF4FF00208DFF850
:100F5000C09106E031462046C847034638B1AF424B
:100F6000CCD055F8046B002EF4D14346F7E794F843
:100F7000402094F83F3043EA02231BB2B3F5007FD0
:100F800001D00D202CE194F84B3094F84A2052EA1D
:100F900003220DD194F85B3094F85A20120442EAEF
:100FA000036294F858301A4394F8593042EA032205
:100FB000E26194F84410E1704B1EDBB2012B01D9C1
:100FC0000D200DE194F84170A7700FB90D2007E1D5
:100FD0007B1E3B4201D00D2002E194F8463094F88C
:100FE000450040EA0320208110F00F0F40F00181FE
:100FF00094F8485094F8473053EA05230DD194F8FB
:10100000575094F856301B0443EA056394F8545043
:101010002B4394F8555043EA052394F843E094F8A1
:10102000425055EA0E2500F0E68002FB01FC05EB7C
:10103000101101EB0C0E7345C0F0DF80A3EB0E0323
:10104000B3FBF7F3002B00F0DA8040F6F5718B422A
:1010500094BF012102214FF6F577BB4200F2D980FF
:101060000233A3612662354465620EEB0607E76230
:10107000032929D1002840F0C48094F8630094F833
:101080006210090441EA006194F86000014394F899
:10109000610041EA0021A1629B0003F2FF13B2EB61
:1010A000532FC0F0B0804FF0FF332361E360802303
:1010B000637194F8652094F8643043EA02231BB20C
:1010C000012B27D0032178E0002800F09E806544A2
:1010D000A56202290FBF5B0003EB430003F001038D
:1010E00003EB500303F2FF13B2EB532FC0F08F80DA
:1010F0004FF0FF332361E360802363715DE000BF45
:10110000A10C0000DC00002021040000E903000025
:10111000B10D0000711C2046424B9847002856D163
:101120000023637194F8332294F8323243EA0223A5
:101130001BB23D4A93424CD194F8372094F8363094
:101140001B0443EA026394F83420134394F83520D7
:1011500043EA0223354A93423DD194F81B2294F886
:101160001A321B0443EA026394F81822134394F8DA
:10117000192243EA02232E4A93422ED194F81F22C9
:1011800094F81E321B0443EA026394F81C221343B2
:1011900094F81D2243EA0223236194F8232294F851
:1011A00022321B0443EA026394F82022134394F88A
:1011B000212243EA0223E360032121701D4A138B9D
:1011C00001339BB21383E3800020606108E00321B8
:1011D000F3E70321F1E70321EFE70321EDE70B201C
:1011E00005B0BDE8F0830C20FAE70020F8E7012005
:1011F000F6E70D20F4E70D20F2E70D20F0E70D20D3
:10120000EEE70D20ECE70D20EAE70D20E8E70D20E2
:10121000E6E70233A3612662354465620EEB060100
:10122000E16227E7710D000055AAFFFF52526141AC
:1012300072724161DC00002038B504462D4B98479E
:10124000034650B92378032B09D000221146607859
:10125000294B9847031C18BF0123184638BD6379F2
:10126000012BF2D104F134054FF40072002128461D
:10127000224B9847552384F83232AA2384F833321C
:10128000522384F8343084F83530612384F83630C2
:10129000412284F83720722184F8181284F8191238
:1012A00084F81A2284F81B32236984F81C32C3F3B1
:1012B000072284F81D221A0C84F81E221B0E84F8C3
:1012C0001F32E36884F82032C3F3072284F8212216
:1012D0001A0C84F822221B0E84F82332226A01326F
:1012E0002263012329466078054DA84700236371D6
:1012F000ABE700BF010D00003D050000710C0000D0
:10130000BD04000002398369023B99423DBF8378E6
:10131000C06A01FB0300002070470000012969D961
:10132000F8B58369994267D20C4606460378022BCA
:101330002ED0032B40D0012B01D00120F8BD01EBB2
:101340005105416A01EB55212C4B984710B14FF0E4
:10135000FF30F8BD6F1CC5F30805354495F83450CF
:10136000716A01EB57213046244B984710B14FF07A
:10137000FF30F8BDC7F30800304490F8340045EA68
:10138000002014F0010F14BF0009C0F30B00F8BDDA
:10139000416A01EB1421194B984710B14FF0FF300F
:1013A000F8BD600000F4FF70304490F8353090F8DC
:1013B000340040EA0320F8BD416A01EBD4110F4B21
:1013C000984710B14FF0FF30F8BDA00000F4FE7058
:1013D00000F134023244D17893781B0443EA01636C
:1013E000304490F834001843537840EA032020F04A
:1013F0007040F8BD012070470120F8BD710D00005C
:101400002DE9F0410546C1808468012C46D00E4686
:1014100003689A69944202D30220BDE8F08164B95E
:101420001A78032A05D01A8996420ED30220BDE805
:10143000F0819A6A002AF6D014469F783F01BE4296
:101440001AD3F61BDFF8708006E0986AEC60C0B92A
:101450000220BDE8F0811E4621462868C0470446A8
:10146000B0F1FF3F1DD001281ED92B689B6998421F
:101470001DD2F31BBE42EED2214628680D4B984781
:10148000E4E700EB161028612B68343306F00F06F2
:1014900003EB46166E610020BDE8F0810220BDE836
:1014A000F0810120BDE8F0810220BDE8F08102203A
:1014B000BDE8F081051300001D1300002DE9F8437D
:1014C000012940F28B808369994201D3022786E08B
:1014D00016460C4605460378022B4CD0032B5ED0F3
:1014E000012B01D002277AE001EB5108416A01EBA0
:1014F00058213E4B98470746002870D108F1010952
:10150000C8F3080814F0010F1CD0A84498F8343030
:1015100003F00F0343EA061388F8343001232B71DC
:10152000696A01EB59212846304B9847002859D168
:10153000C9F30809C6F30712A94489F83420012326
:101540002B714CE0A84488F8346001232B71696A40
:1015500001EB59212846254B9847002844D1C9F36F
:10156000080905EB090393F8343023F00F03C6F3A1
:1015700003221A43E0E7416A01EB14211B4B984711
:10158000074660BB630003F4FF732B4483F83460A9
:10159000C6F3072283F8352001232B711FE0416A2F
:1015A00001EBD411114B98470746C0B9A10001F4D3
:1015B000FE7101F134032B44DA781206294402F05B
:1015C0007042324381F83420C2F307215970110C64
:1015D0009970120EDA7001232B7100E00227384651
:1015E000BDE8F8830746FAE70746F8E7710D000003
:1015F0002DE9F0410546884641B9C6689EB1836928
:101600009E4228BF012634462A4F1AE0294B9847AC
:101610000346012843D9B0F1FF3F45D0AA69904263
:1016200042D34646EFE70126EDE721462846B84774
:10163000034670B1B0F1FF3F36D0012834D0B44238
:1016400031D00134AB699C42EFD3012E29D9022459
:10165000EBE76FF0704221462846174B9847034648
:10166000B8B9B8F1000F0CD1EC602B69B3F1FF3FB2
:101670001DD0013B2B616B7943F001036B71234655
:1016800012E02246414628460B4B98470346002865
:10169000EAD0012B0CBF4FF0FF33012304E00123FC
:1016A00002E0002300E000231846BDE8F081234655
:1016B000FAE700BF1D130000BD1400002DE9F0473C
:1016C000C4880134A3B213B90420BDE8F0870369CC
:1016D00013B90420BDE8F0870E46054614F00F0745
:1016E00010D101330361C16831B903681B899C4281
:1016F00008D30420BDE8F08700688378013B13EA33
:10170000141808D0EC802B68343303EB47136B615B
:101710000020BDE8F087304B98478146012848D922
:10172000B0F1FF3F48D028688369994539D316B98D
:101730000420BDE8F087E968284B9847814610B936
:101740000720BDE8F087012839D0B0F1FF3F39D03C
:101750002868234B9847002837D128684FF4007237
:10176000002134301F4B98472E68494630461E4BA7
:10177000984730634FF0010A194E2B689A789045CC
:101780000BD283F804A02868B04708BB2A68136B03
:101790000133136308F10108EFE71A6BA2EB0802AB
:1017A0001A63C5F80C90494628680F4B9847286182
:1017B000A8E70220BDE8F0870120BDE8F0870220FD
:1017C000BDE8F0870120BDE8F0870120BDE8F08783
:1017D0000120BDE8F08700BF1D130000F1150000D7
:1017E000010D0000710C0000051300002DE9F84FF9
:1017F00005460C460B782F2B0AD05C2B08D00368CB
:101800005B69836023781F2B06D9DFF8388285E077
:1018100001340023AB60F5E700212846834B98474D
:10182000814600236B61E0E02E233B7073782E2B02
:1018300013D17B70B3782E2B02D14FF00609D4E080
:1018400003242F2B00F0BA805C2B00F0B780202BF4
:1018500000F2C98034442423B2E00224F1E74CF0C2
:10186000030C803B724AD35C85E0002B40F0BB80C8
:10187000A3F16102D2B2192A00F291804CF0010C5E
:10188000203BDBB28BE03A78E52A04BF05223A70B0
:10189000B9F1080F04BF4FEA8C0C5FFA8CFC0CF016
:1018A0000302012A08BF43F010030CF00C0CBCF13A
:1018B000040F08BF43F00803FB7282E05946284634
:1018C000C0478146002840F0938029692868B047C6
:1018D0008146002840F08C8069690B78002B00F06D
:1018E000978091F80BA01AF0080FE7D1AF6901F1CA
:1018F0000B0C3A460B4613F801EB12F8010B864528
:10190000DCD19C45F7D1FB7A13F0040F6DD11AF0AE
:10191000100F50D02868474B9847A860264614F807
:10192000013B2F2BFAD05C2BF8D0AF690B22202182
:101930003846414B984733782E2B3FF475AF06F16C
:10194000FF3E002004464FF0080984464FF00B0B81
:101950004FF02A0A01341EF8013F202B3BD92F2BD0
:101960003CD05C2B3AD02E2B55D081453BD913F07F
:10197000800F7FF474AF222B3FF45FAF52462F49A4
:1019800093423FF472AF11F8012F002AF8D1A3F16E
:101990004102D2B2192A3FF66BAF4CF0020C3B5415
:1019A0000130D7E703F00403002B14BF4FF0040904
:1019B0004FF0050919E04FF0050916E034442023E3
:1019C000FB7200212846194B9847814680B91C4E6E
:1019D0004FF0000B79E73444042301E03444002342
:1019E00000287FF450AF4FF006094846BDE8F88F55
:1019F000AB69DB7AB9F1040FF7D113F0200FD1D026
:101A00000022AA606A6113F0040F87D09146ECE7C8
:101A1000AB69DB7AF1E7B9F1080FE4D14FEA8C0C3E
:101A20005FFA8CFC4846D94694E700BF01140000D9
:101A3000BC9600007F0C0000710C00006D97000048
:101A4000710D0000BD1600002DE9F0410446002193
:101A50001B4B984700282BD11A4E4FF001081A4F04
:101A600004E041462046B847054630BB216920685E
:101A7000B047054608BB63691B78E52B01D0002BF6
:101A8000EFD1216920680F4B9847054610B12846D1
:101A9000BDE8F0812022002160690C4B98470B22A1
:101AA000A16960690A4B9847236801221A71EEE721
:101AB00005460428EBD10725E9E7042DFBD0E6E72E
:101AC00001140000710D0000BD160000710C000033
:101AD0005D0C0000012930D92DE9F84304460E467B
:101AE0008369994203D302221046BDE8F883174F59
:101AF0004FF00009DFF8588003E02E46A369AB429F
:101B0000F2D931462046B8470546C8B1012819D058
:101B1000B0F1FF3F18D04A4631462046C047024642
:101B20000028E1D12369B3F1FF3FE6D001332361FF
:101B3000637943F001036371DFE7022210467047C7
:101B40000022D1E70222CFE70122CDE71D130000DA
:101B5000BD14000010B584B001900091144604A893
:101B600040F8041D144B984700281ADB134B03EB75
:101B700080035B680BB100221A70019BB3B1002295
:101B80001A70019A0D4B03EB8000426062B1012C88
:101B900001D0002006E00022694601A8084B9847C2
:101BA00000E00B2004B010BD0020FBE7034B03EB6B
:101BB000800300205860F5E7A10C0000DC00002045
:101BC0007D0E00002DE9F0478CB00191002800F057
:101BD000AC80044615460023036002F01E0201A9F2
:101BE00005A85C4B98470646002840F09F8005F00A
:101BF0001F0802AB0B93019905A8574B98470A9F02
:101C00000346002839D1002F00F0948015F01C0FF6
:101C100048D1FB7A13F0100F40F0998015F0020FB5
:101C200003D013F0010F40F0908015F0080F01D0A1
:101C300048F02008059B1B6BE361276284F806804F
:101C40004FF0000884F80780059D39462846434B2D
:101C500098472061FA7FBB7F1B0443EA02633A7F07
:101C600013437A7F43EA0223E360C4F80880C4F890
:101C700018802560EB88A38058E015F01C0F04D075
:101C8000042806D048F008080A9F002BD6D01E462C
:101C90004CE005A8324B984748F008080A9F40B12D
:101CA000064643E0FB7A13F0110F4AD115F0040FFA
:101CB00049D118F0080FBDD02A4B9847C1B2B9736B
:101CC000C0F30722FA73C0F307433B74000E787425
:101CD000B975FA753B7678760025FD723D777D778C
:101CE000BD77FD77DDF81490394648461B4B984781
:101CF000BD76FD763D757D75012389F80430054676
:101D0000002895D0D9F830A001464846164B984790
:101D100008B106460AE00598013DC5605146134BDF
:101D20009847002884D0064600E0092630460CB0CB
:101D3000BDE8F08715F01C0F01D10623A5E70623A7
:101D4000A0E70726F2E70826F0E70726EEE70426D5
:101D5000ECE700BF7D0E0000ED1700007F0C0000D7
:101D6000491A0000D5210000D51A0000710D0000AD
:101D70002DE9F04F83B00446884615469946002366
:101D8000C9F800305C4B9847019048B9E379002BC3
:101D900040F0B080A37913F0010F05D10723019320
:101DA000019803B0BDE8F08FE668A368F61AAE426A
:101DB00028BF2E46002E55D1F2E761694F4B984758
:101DC00060E00223E3710193EAE70123E3710193E9
:101DD000E6E70223E3710193E2E70123E371019354
:101DE000DEE74FF4007204F1240108EB4020444B7D
:101DF000984774E0A26995421AD0A37913F0400F76
:101E00000CD0012304F124019AF801003D4FB8479A
:101E1000002867D1A37923F04003A3712068012330
:101E20002A4604F124014078374FB84700285DD195
:101E3000A561A168C1F30801C1F50075B54228BFCD
:101E4000354624312A46214440462D4B9847A84424
:101E5000A3682B44A360D9F800302B44C9F80030A4
:101E6000761B9DD0A268C2F30803002BE1D1206845
:101E70008378013B03EA522313F0FF0708D1002ABD
:101E80009BD1206901289CD9B0F1FF3F9DD06061B2
:101E9000D4F800A0616950461C4B984705460028BD
:101EA00097D03D445FEA562BA4D09AF8023007EB56
:101EB0000B029A4288BFA3EB070B5FFA8BF32A460B
:101EC00041469AF80100104FB847002885D1A37900
:101ED00013F0400F03D0A069401B834581D84FEA1F
:101EE0004B25B4E70123E371019359E70123E37123
:101EF000019355E7019353E7410E00001D130000C5
:101F00005D0C0000BD0400003D040000051300004E
:101F10002DE9F04F83B004468846164699460023C3
:101F2000C9F800306A4B9847019048B9E379002B13
:101F300040F0CC80A37913F0020F05D10723019361
:101F4000019803B0BDE8F08FA368F3420DD2002ED4
:101F500069D10AE000215F4B9847034603E06169BD
:101F60005C4B98470346002B6FD1A368E26893420D
:101F700088BFE360A37943F02003A371E0E7022365
:101F8000E3710193DCE70123E3710193D8E7206853
:101F90000123A26904F1240140784F4DA84720B9DC
:101FA000A37923F04003A3715CE00123E371019363
:101FB000C6E70223E3710193C2E70123E3710193B2
:101FC000BEE74FF4007208EB412104F12400434BBB
:101FD0009847A37923F04003A37166E0A3699D426B
:101FE00003D0A268E3689A4262D3A561A068C0F3F7
:101FF0000800C0F50075B54228BF354624302A4692
:1020000041462044354B9847A37943F04003A371E0
:10201000A844A3682B44A360D9F800302B44C9F826
:102020000030761BA1D0A268C2F30803002BDDD1DB
:1020300020688378013B03EA522313F0FF070DD198
:10204000002A8CD12369002B84D0012B97D0B3F1C7
:10205000FF3F98D06361226902B92361A37913F02D
:10206000400F94D1D4F800A0616950461C4B9847AA
:10207000054600289DD03D445FEA562BAED09AF825
:10208000023007EB0B029A4288BFA3EB070B5FFA03
:102090008BF32A4641469AF801000F4FB8470028B3
:1020A0008BD1A169491B8B458BD84FEA4B25AFE7F4
:1020B00001232A4604F124019AF80100094FB84788
:1020C000002892D00123E371019339E7019337E7A8
:1020D000410E0000F1150000BD0400005D0C000081
:1020E000051300003D04000038B50446294B98470D
:1020F0000346D0B9A27912F0200F16D012F0400F8B
:102100000DD020680123A26904F124014078224DFA
:10211000A84700283BD1A37923F04003A371E169CC
:1021200020681E4B9847034608B1184638BD256AFB
:10213000EB7A43F02003EB72E3682B77A3891B0A49
:102140006B77E389AB77E37BEB772369AB76C3F3FC
:102150000722EA761B0C2B751B0A6B75104B9847F0
:10216000A875C0F30723EB75030C2B76000E687679
:102170000023AB74EB74A37923F02003A3712368CD
:1021800001221A712068074B98470346CDE70123C7
:10219000CBE700BF410E0000BD040000710D000040
:1021A000D52100003912000010B50446074B9847AE
:1021B000034608B1184610BD2046054B9847034614
:1021C0000028F7D100222260F4E700BFE9200000D8
:1021D000410E000000B583B069460F480F4B984789
:1021E0009DF805009DF804301B0443EA40539DF818
:1021F000000003439DF8020043EAC0239DF801005C
:1022000043EA4013BDF80600A0F2BC7043EA406008
:1022100003B05DF804FB00BF401600209D230000C2
:10222000EFF31083036072B6BFF35F8F7047BFF3A5
:102230005F8F036883F310887047000010F0030F6E
:1022400010D101390B291ED8DFE801F00608060A73
:10225000060A06060A060A060D4870470D4870472A
:102260000D48704701390B290FD8DFE801F0060847
:10227000060A060A06060A060A06054870470748BF
:10228000704705487047002070470020704700BF26
:1022900080DE2800803B2600008D270000EA240015
:1022A0002DE9F8430C46904646692749274AB7B2BC
:1022B00007F00303002B0CBF0B4613469C4202D3CE
:1022C000E41A0136F3E70125DFF888902946304605
:1022D000C847844203D3241A0135EDB2F6E71C4BFC
:1022E0009C4298BF012109D90121194BA4F5A834BA
:1022F000A4F5C0740131C9B29C42F7D8B4F5616F3E
:1023000038BF002207D30022A4F561640132D2B2A3
:10231000B4F5616FF8D23B2C98BF002305D9002398
:102320003C3C0133DBB23B2CFAD8A8F8067088F8A5
:10233000055088F8041088F8022088F8013088F8E1
:1023400000400020BDE8F8830085E2018033E10110
:102350007F5101003D22000038B50D4604464FF480
:10236000E5720B49003018BF01200A4B98472368DB
:10237000AB4208D04BB925602046074B984740F246
:10238000B273636138BD002038BD6FF0110038BDF5
:10239000B097000005320000D137000038B50D4677
:1023A000044640F245220849003018BF0120074B7F
:1023B00098472046064B98472A4601462046054B3B
:1023C0009847002038BD00BFB097000005320000DC
:1023D00061380000A122000070B5124B5969884293
:1023E0001DD00222042500241E46884287BF0132E8
:1023F000D4B202F1FF32D5B2A54212D32B195B1031
:10240000DAB2032A0DD8134606EBC20149688142AD
:10241000EBD1044A52F833301BB1984770BD022308
:10242000F7E770BDF800002008B5084B4FF0FF310A
:10243000596000221A60D9609A6059611A61D961A5
:102440009A610348034B984708BD00BFF80000207D
:10245000D923000081340000F8B50246364B5B6892
:10246000984226D0344BDB6898421ED0324B5B69D1
:1024700098421CD0304BDB69834208BF032019D03F
:1024800000293BD02C4B1B68002B4FD02A4B9B685C
:10249000002B36D0284B1B69002B41D0264B9B6963
:1024A000002B40D06FF00C00F8BD012002E00220AC
:1024B00000E00020204B43F83010D1B90021104635
:1024C0001E4B9847F8BD08339E4212D05968686881
:1024D0008842F8D2B1F1FF3FF5D0D3F800C08E4664
:1024E00095E8030083E80300C7F800C0C7F804E0DC
:1024F000E9E701211046114B9847F8BD6FF00C0039
:10250000F8BD012004460C4B43F8341003EBC40320
:102510005A60094E06EBC007334620363D46D5E7E4
:1025200002200446EFE703200446ECE7024B196063
:102530005A600020EDE700BFF80000206D35000074
:1025400070B50D461646044660B1081C18BF012040
:102550003E220549054B98472368324629462046C6
:10256000984770BD0020F3E7CC97000005320000CB
:1025700070B50D461646044660B1081C18BF012010
:1025800047220549054B984763683246294620464D
:10259000984770BD0020F3E7CC970000053200009B
:1025A00038B50C46054658B1081C18BF01203B221F
:1025B0000449054B984721462846044B984738BDA7
:1025C0000020F4E7E097000005320000ED3900003C
:1025D000F0B583B00D4616461F4604464E22084904
:1025E000003018BF0120074B98479DF8203000931A
:1025F0003B46324629462046034CA04703B0F0BD77
:10260000E097000005320000553A000038B50D464D
:10261000044657220549003018BF0120044B984753
:1026200029462046034B984738BD00BFE09700007D
:1026300005320000693B000038B50D4604466022B3
:102640000549003018BF0120044B98472946204611
:10265000034B984738BD00BFE097000005320000EB
:102660006D3B000010B504466A220549003018BFD2
:102670000120044B98472046034B984710BD00BFEC
:10268000E097000005320000773B000010B50446DB
:1026900073220549003018BF0120044B984720469B
:1026A000034B984710BD00BFE097000005320000C3
:1026B000813B000070B50D46164604467C22064953
:1026C000003018BF0120054B984732462946204666
:1026D000034B984770BD00BFE09700000532000033
:1026E000C13B000010B5044685220549003018BFE3
:1026F0000120044B98472046034B984710BD00BF6C
:10270000E097000005320000153C000038B50C468B
:10271000054658B1081C18BF01208E220449054BFC
:10272000984721462846044B984738BD0020F4E7D7
:10273000E097000005320000413C0000F0B583B096
:102740000D4616461F4604469A220A49003018BF15
:102750000120094B98479DF824300193BDF82030A3
:1027600000933B46324629462046044CA04703B01E
:10277000F0BD00BFE097000005320000A53C00005E
:1027800070B50C461646054660B1081C18BF0120FE
:10279000BF220549054B9847324621462846044B3F
:1027A000984770BD0020F3E7E09700000532000075
:1027B000293F000070B50C461646054660B1081C5E
:1027C00018BF0120C8220549054B984732462146CB
:1027D0002846044B984770BD0020F3E7E0970000BF
:1027E00005320000AD3F000010B50446D122054976
:1027F000003018BF0120044B98472046034B9847F0
:1028000010BD00BFE097000005320000314000001D
:1028100010B50446DA220549003018BF0120044BE8
:1028200098472046034B984710BD00BFE097000033
:10283000053200005940000008B5436903B19847CC
:1028400008BD08B5836903B1984708BD38B50D4682
:10285000044680B1081C18BF01203D220749084BDF
:10286000984729462046074B9847074B2360074B5C
:102870006360002038BD0020EFE700BFFC97000038
:1028800005320000ED450000392800004328000013
:1028900010B5044654220949003018BF0120084BE6
:1028A00098472046074B984720B92046064B984743
:1028B000002010BD6FF0100010BD00BFFC9700009D
:1028C00005320000814700001947000010B504469A
:1028D00062220949003018BF0120084B9847204662
:1028E000074B984720B12046064B9847002010BD63
:1028F0006FF0100010BD00BFFC9700000532000013
:10290000814700002D47000070B50D46164604466D
:1029100086220649003018BF0120054B98473246F1
:1029200029462046034B9847002070BDFC970000C5
:10293000053200004147000008B5436A984708BDCA
:102940007047000070B582B00D46164604467F22DF
:102950001549003018BF0120144B984716B90020C4
:1029600002B070BD01A8124B984794F82D3013F0B7
:10297000010F13D194F82D3043F0010384F82D306A
:1029800001A80C4B984765610025658326830121CA
:10299000A4F11C00084B98472846E1E701A8054B25
:1029A00098476FF00300DBE7149800000532000041
:1029B000212200002F220000094400002DE9F043ED
:1029C00083B00C4615460746AE222049003018BF9A
:1029D00001201F4B98471DB9002003B0BDE8F083CC
:1029E00007F11C0630461B4B9847034658B317F8AF
:1029F000182C022A06BF680080B22846984228BFD9
:102A00001846054694B150B104EB00092146DFF8A1
:102A100048804C1C3046C04721464C45F9D117F838
:102A2000183C022B0CBF68082846D6E70028F6D0D1
:102A30000024DFF824800DF107013046C04701343F
:102A4000A542F8D1EBE70020C7E700BF14980000CB
:102A50000532000041330000BD32000070B504466D
:102A60000A4B9847064604F13805C1B22846084B80
:102A700098472379012B04D9C6F307212846044B34
:102A80009847E36A2046984770BD00BFD9440000CC
:102A90000133000010B504460379012B026BC38E8D
:102AA00003F10101C1868CBF32F81310D15C0A4BCF
:102AB0009847E28EA38E9A4200D210BD0021204694
:102AC000064B984794F849306FF3000384F8493077
:102AD000A36A20469847F0E7A94400000944000093
:102AE000F8B50F4615461E460446002837D0002983
:102AF00037D0002A37D0181C18BF0120EB221B4901
:102B00001B4B98473246294604F13800194B984729
:102B1000002823DB39462046174B984700281DDB49
:102B2000164A00212046164DA847164A0121204684
:102B3000A847154A02212046A84794F8493003F0D7
:102B4000FD036FF3000384F84930104B6362A36206
:102B5000E3620F4B23620F4BE3610020F8BD0020BE
:102B6000CCE70020CAE70020C8E700BF14980000A7
:102B7000053200006D32000099430000952A0000E4
:102B8000394500005D2A0000392900004129000074
:102B9000BD2900004529000010B504464FF4897294
:102BA0000F49003018BF01200E4B984794F8493068
:102BB00013F0020F00D010BD20460B4B98470028A1
:102BC000F9D194F8493043F0020384F849300121E7
:102BD0002046064B984701212046054B9847EAE7D7
:102BE0001498000005320000A54300005544000081
:102BF0009D44000070B50D460C4C002A18BF1446C9
:102C000006464FF4B0720A49003018BF0120094B44
:102C10009847012D05D015B1022D04D070BDB462C6
:102C200070BDF46270BD746270BD00BF41290000C8
:102C3000149800000532000038B50D46044658B11E
:102C4000081C18BF01204FF4C3720449044B984775
:102C50001C342C60002038BD0020F4E714980000DC
:102C6000053200000F4B5978884218D030B41A460C
:102C7000002300F00F0507E001335BB20D2B09D0F4
:102C800020325178814207D01478002CF4D18D4243
:102C9000F2D101E04FF0FF33184630BC70470023FB
:102CA00018467047180100200020704738B50446C8
:102CB0000D46094B9847094B03EB40139B78032BB8
:102CC00001D0002038BD054B03EB40108369294635
:102CD0002046984738BD00BF652C00001801002031
:102CE000F0B585B006460D4617464D4B984704464D
:102CF000002D5BD14B4A4301D1180020C870D35C32
:102D000073B1484B03EB441301229A70454800EB22
:102D10004410C3693A46C1783046984705B0F0BDC3
:102D20008B78032B0BD03F4800EB44121446D36939
:102D30000C320021607898470223A370EEE70B461F
:102D400091F90C500A46CE690C3201215878B047EF
:102D5000A0B1344B03EB441305229A700222DA70BF
:102D6000002D09DB2F4800EB4410407840F0800034
:102D700001212D4B9847D1E75878F9E7294800EB16
:102D800044100423837043780022019202929542FA
:102D9000ACBF43F0800303F00F038DF80C30012328
:102DA0008DF80D3001A8214B9847B7E7012D0AD0C7
:102DB000022D1CD0032D2AD01A4B03EB4013062200
:102DC0009A70DA70A2E7174A4301D1180220C8703E
:102DD000D35C2BB1134B03EB441305229A7095E798
:102DE0000B469870002130460F4B98478EE70D4AEE
:102DF0004301D1180420C870D35C2BB1094B03EBFD
:102E0000441301229A7081E702238B7086E7054BF9
:102E100003EB401300229A700522DA7076E700BFB8
:102E2000652C00001801002019560000C157000051
:102E30002DE9F04105461C4B984706461B4C04EB18
:102E400040140C3421462846194B9847C0B2082834
:102E500009D001212846174CA047012145F08000E8
:102E6000A047BDE8F08100212846124FB84745F041
:102E7000800800214046B8470C4B03EB4613012263
:102E80009A705B6921462846984708B1BDE8F081F1
:102E9000064B03EB46160523B37001212846B847BD
:102EA00001214046B847F1E7652C000018010020D9
:102EB000615700001956000010B5114B98470028C3
:102EC0001DDB104C4FF4D072002120460E4B98476A
:102ED000234604F5D070FF210C4A59705A619A615B
:102EE000DA6120338342F8D109490020094CA04718
:102EF00009490120A04709490220A047002010BD30
:102F00003550000018010020AB960000A92C0000ED
:102F1000312E0000C5590000AD2C0000E12C00004E
:102F200008B5014B984708BDA159000008B5014BF1
:102F3000984708BD0D51000008B5014B984708BDE2
:102F40006551000008B5014B984708BD7751000056
:102F5000F8B506460C4617460F4B9847002814DA7A
:102F6000FF200D4B9847051E12DB3A46214630469E
:102F70000A4B984700280DDB094B68011A18567058
:102F800004F003041C540020F8BD6FF01300F8BDDA
:102F90006FF01400F8BD00BF652C000085510000E3
:102FA0001801002008B5024600210846014B984749
:102FB00008BD00BF512F000038B50546064B9847A5
:102FC000041E07DB2846054B9847054800EB4410D4
:102FD000FF23437038BD00BF652C00009D520000E8
:102FE0001801002038B505460E4B9847041E16DB25
:102FF00063010D4AD35C002B0CBF022201220A4B55
:1030000003EB44139A702846084B9847002800DBCE
:1030100038BD054B03EB44140023A37038BD6FF09B
:103020001100F5E7652C0000180100206153000035
:103030002DE9F04786B00446077A38463F4B98475B
:10304000657AD4F80480061E72DB04A83C4B9847CE
:103050003C4B03EB46139B788DF817309DF81730E7
:10306000DBB2012B11D004A8374B98479DF81730DD
:10307000DBB2052B5FD0062B23D0002B0CBF6FF0EB
:103080001200012006B0BDE8F087DFF8B8A04FEAD3
:1030900046190AEB090303229A7004A82A4B9847A1
:1030A0001AF8093083B1227A003518BF0125236848
:1030B0000193CDF8088017F0800F19D102F00F03AB
:1030C00018E06FF00F00DDE71E4B03EB4613DA7CD0
:1030D0009D7C05EB0225ADB2A5B91A4B03EB461654
:1030E0000423B37000230125227A21680191029301
:1030F00042F080038DF80C308DF80D5001A8134B71
:103100009847BFE74346A84528BF2B460D4A02EB28
:10311000461696F90C20002A05DB227A21680191D7
:1031200002930025CAE79D4294BF00250125DBE7F5
:103130006FF01100A6E70220A4E700BF652C000095
:1031400021220000180100202F220000C15700009A
:1031500038B5044641B101290CBF01210221134BAE
:1031600098470346184638BD114B9847051E19DB92
:10317000022120460D4B984703460028F2D000213B
:1031800020460A4B9847031EECDB0A4B03EB451322
:1031900001229A700321D970DB69002220469847EA
:1031A0000023DFE76FF01103DCE700BF19560000D2
:1031B000652C00001801002038B50D4614460E4B52
:1031C00098470E4B002C08BF1C46002813DB012D2E
:1031D00008D015B1022D0AD038BD094B03EB4010C1
:1031E000446138BD064B03EB4010846138BD044B8D
:1031F00003EB4010C46138BD652C0000A92C000011
:103200001801002000B900BE704703684BB18B4223
:1032100009D01B681BB19942FBD1012070470020E7
:1032200070470020704701207047000070B50546C8
:103230000E4604680A4B984780F00100592209495C
:10324000C0B2094B98472B681BB92E60336070BD24
:103250001C462368002BFBD12660336070BD00BF85
:103260000B320000349800000532000070B50E46A5
:103270001546044678B181B1A2B1012032220D4930
:103280000D4B98476B1E1D4209D163600020A06062
:10329000E060266070BD0020F0E70020EEE76FF0F0
:1032A0000C0070BD322203490020034B98476B1E6F
:1032B000EBE700BF549800000532000038B50D461A
:1032C0000446A0B1081C18BF01204A220A490B4B32
:1032D0009847A368E2689A420BD06268134022685C
:1032E000D35C2B70A3680133A360002038BD00209D
:1032F000EBE76FF0090038BD54980000053200007C
:1033000038B50D4604465B220B49003018BF01203A
:103310000A4B9847E368626813402268D554E36813
:103320006168A2689A1A8A4284BF591AA16001335F
:10333000E360002038BD00BF549800000532000053
:1033400010B5044671220549003018BF0120044B16
:103350009847E068A368C01A10BD00BF54980000E9
:103360000532000008B5074A13889BB21380064B4C
:103370009847064B9847064B9847064B9847064B8D
:10338000984708BD0040004119360000393600005A
:103390000D360000F5350000553600002DE9F041EE
:1033A00082B0324B5A690192019A5A61304B1868C7
:1033B0004FF494722F49003018BF01202E4B9847CC
:1033C000019B002B4ED04FF0FF362C4D284FDFF8DD
:1033D0009C803CE005EBCE0EDEF80460B6F1FF3FCA
:1033E00002D030463B689847019B012202FA04F460
:1033F00023EA04040194019B93FAA3FEBEFA8EFE15
:10340000002B08BF4FF0FF3E19D07446BEF1020FEB
:10341000E0D002221346042000219442C7BF0133AA
:10342000D9B203F1FF33D8B28142D7D84318C3F3DE
:1034300047039E4615F83320A242EED1CAE7D8F8DA
:1034400014300193019BC8F81430019B53B1019BC8
:1034500093FAA3FEBEFA8EFE002B08BF4FF0FF3E8C
:10346000D3D1ECE702B0BDE8F08100BF00280040F6
:10347000B8020020989800000532000078980000FB
:10348000374A536813F0010FFBD1354A536813F0E4
:10349000030FFBD1324B1B7813F0020F5DD1304A82
:1034A000536813F0010FFBD12D4A137843F0010349
:1034B0001370536813F0010FFBD1294A536813F0BE
:1034C000030FFBD1264B1A7802F0EF021A7000228C
:1034D0005A709A609A610A2119635A6341F2111174
:1034E000D9611A621A46536813F0030FFBD11C4AC4
:1034F000137843F0020313701A4B4FF48052C3F851
:103500008020BFF34F8FBFF36F8FC3F880211A6005
:103510004FF40052C3F88020BFF34F8FBFF36F8F7B
:10352000C3F880211A604FF48042C3F88020BFF3B3
:103530004F8FBFF36F8FC3F880211A604FF40042A2
:10354000C3F88020BFF34F8FBFF36F8FC3F8802184
:103550001A60054B1860002070476FF0100070472C
:103560000028004000E100E0B802002010280ED042
:10357000112808D0122808D0132808BF032207D02A
:103580004FF0FF307047012202E0022200E00022EB
:103590000A4B13F83220FF2A0DD031B90123934092
:1035A000074AD36053610020704701239340044AC7
:1035B0001361002070474FF0FF307047789800008B
:1035C0000028004008B5014B984708BD9D33000016
:1035D00008B5014B984708BD9D33000008B5014B65
:1035E000984708BD9D33000008B5014B984708BDBA
:1035F0009D330000034B044A1A6205325A62013AB5
:10360000DA627047001C0040010101000122014BF9
:103610005A71704700080040064B42F28E029A82AF
:1036200000229A75DA75D96901F47C51D9611A744E
:10363000704700BF00140040044A054B9A611A46C7
:10364000136913F0020FFBD0704700BF062600037A
:10365000001000402B4A136A23F00F0343F00403C9
:103660001362294B00221A77284A9A621A4692F866
:103670002C3013F0100FFAD10022234B83F82020B6
:103680001A4692F82C3013F0040FFAD102221E4B86
:103690001A771A4692F82C3013F0020FFAD11A4B0F
:1036A0005A6A5A621A4692F82C3013F0080FFAD16F
:1036B0001922154B83F820201A4692F82C3013F06B
:1036C000040FFAD1104B93F8203013F0010F12D0F1
:1036D0000D4A136903F41063B3F5106FF9D1094A69
:1036E0005368002BFCD1074A136A23F00F0343F001
:1036F000010313627047044A136913F4807FFBD0FF
:10370000EDE700BF001C00400010004080BB01043A
:1037100008B51D4B18680269937A13F0010F11D098
:10372000012393721369C3F30803002BFAD1938921
:1037300013F0800F43684FF0000214BF02210121F3
:10374000984708BD937A13F0040F08D1937A13F0C9
:10375000080F0BD1937A13F0020F0DD108BD04238B
:103760009372436800221146984708BD082393725C
:1037700003680021984708BD022393724368002222
:1037800003219847EAE700BFBC02002000B583B0E0
:103790000D4B9B78DBB20193019B13F0020F06D017
:1037A0000A4B1B681BB1084A5068984709E0019B07
:1037B00013F0010F05D0054B5B6813B1024A506846
:1037C000984703B05DF804FB000002417816002022
:1037D00010B5044600283BD00068003018BF012017
:1037E00039221C491C4B98471C4B1C6023681A69E2
:1037F00012F0010FFBD148F203011A690A42FCD111
:103800001A8812F0020F0FD048F203011A690A4217
:10381000FCD11A8822F002021204120C1A802268CB
:10382000136913F0020FFBD12268136913F0010F23
:10383000FBD113889BB243F0010313802268136904
:1038400013F0010FFBD14FF401431380002010BD92
:103850000020C5E7B098000005320000C00200203B
:1038600010B5044650B10068003018BF01209822FE
:103870000349044B98472368986910BD0020F6E778
:10388000B09800000532000010B5084B1C68236892
:103890009B8913F4807F00D110BD63682046984750
:1038A00023684FF480729A81F6E700BFC0020020BF
:1038B00010B504463E220649003018BF0120054BD2
:1038C000984794F82F3043F0020384F82F3010BD4E
:1038D000C8980000053200002DE9F04188461546E1
:1038E0001F460446061C18BF0126A3223C49304649
:1038F0003C4B9847290201F47C5141EA080115F438
:10390000807F04D015F4006F16D041F0010115F44A
:10391000804F94F8043214BF43F0100303F0EF0318
:1039200084F80432A7608BB2E38105F4805240F240
:103930007F2740F25D200DE015F4005F14BF41F0D9
:10394000030141F00201E2E73B4216D1238E13F05E
:10395000010F1FD1638E9BB2002AF5D00342F5D030
:103960002046214B9847638E9BB26FEA93236FEA00
:10397000832363860020BDE8F08120461A4B9847D8
:10398000638E9BB26FEA93236FEA832363860020E2
:10399000BDE8F08111F0200F04D1238E9BB243F0DB
:1039A0000103238615F4005F02D10120BDE8F081F8
:1039B00089220B4930460B4B9847626A4FF0FF3320
:1039C00012F4801F08D1626A013BF9D12046064BF0
:1039D00098470020BDE8F0810120BDE8F08100BFDC
:1039E000C898000005320000B138000038B50C4618
:1039F000054640B3081C18BF0120E2221349144BAE
:103A000098472C6094F82F3043F0010384F82F304E
:103A100094F82F3013F0010FFAD10E2384F82E30D2
:103A20000F2384F82930A38E9BB26FEA53236FEAE9
:103A30004323A386E38E9BB26FEA93236FEA83232B
:103A4000E386002038BD0020D7E700BFC8980000FB
:103A500005320000F8B515461C469DF8187006465C
:103A6000D8B10068003018BF01204FF485723A4980
:103A70003A4B9847336897B193F8282042F00402F4
:103A800083F82820DA8F12F4004F0FD0012C53D086
:103A9000042C59D06FF00C00F8BD0020E5E793F836
:103AA000282002F0FB0283F82820EBE79A8D12F021
:103AB000040F09D05A6A12F0030FFBD19A8D22F03D
:103AC00004021204120C9A85596CC1F30741244870
:103AD000244A002918BF0246998D21F020010904CB
:103AE000090C9985B2FBF5F2520893F8281011F0F1
:103AF000040F02D0002A08BF0122998DC9B241EA01
:103B0000022189B29985998D21F0C0010904090C1F
:103B1000920802F0C0020A439A859A8D92B242F04E
:103B200001029A859A8D12F0020FFBD09A8D92B203
:103B300042F004029A85A9E793F8282002F0FD02DA
:103B400083F828200020F8BD93F8282042F00202D4
:103B500083F828200020F8BDC89800000532000036
:103B6000808D5B00001BB7000020704700290CBF50
:103B70000420002070470368186CC0F34050704761
:103B800000B583B040F253120B49003018BF01203A
:103B90000A4B984700230193019A41F287339A42D6
:103BA00006D81A46019B01330193019B9342F9D930
:103BB00003B05DF804FB00BFC898000005320000A8
:103BC00070B50D461646044678B10068003018BF3F
:103BD00001204FF4B0720C490C4B98472068436A9F
:103BE00013F0010F03D0002070BD0020F1E783899E
:103BF00023F001031B041B0C83810021C180334689
:103C00002A46034CA04770BDC8980000053200004A
:103C1000D938000010B5044658B10068003018BF0C
:103C200001204FF4BA720449044B9847236818697D
:103C300010BD0020F5E700BFC89800000532000065
:103C400038B50C46054660B10068003018BF012049
:103C500040F281121149124B98472D68022103232B
:103C60000BE00020F4E7100C2070100A6070A270C6
:103C70000334013BDBB20139C9B21A1D55F82220C9
:103C8000032BF0D0100E2070100C6070100AA07082
:103C9000E270043411F0800FEBD038BDC8980000FA
:103CA000053200002DE9F0410D4690461F46BDF853
:103CB00018600446002832D00068003018BF012088
:103CC00040F29D122049214B98472068436A13F027
:103CD000010F2FD1436A13F0020F2ED105F40043D8
:103CE000002B14BF0023102315F4803F04D115F4DA
:103CF000003F16D043F022039BB28381C7F3090330
:103D00008380C68000220023C4E9022327826682C2
:103D100043462A4620210E4CA047BDE8F0810020F2
:103D2000CEE715F4002FE7D115F4801F08D043F03B
:103D30002203E1E70020BDE8F0810020BDE8F0812A
:103D40000020BDE8F08100BFC898000005320000E7
:103D5000D93800002DE9F8430F46054678B30068CE
:103D6000003018BF01204FF4ED723E493E4B98479A
:103D70002C682A8AD5E90201B5F8128002FB08F8FE
:103D80004FEAE879B8EB000869EB0109B9F1000FD7
:103D900008BFB8F1040F4FD202F0030692B200231D
:103DA000DFF8CC80C04713434DD0042E0FD0236AD8
:103DB000022E13D0032E0ED0012E14D111E00020BC
:103DC000D1E72046294B98470020BDE8F883236AB5
:103DD0003B60042607E0C3F30742BA60C3F307223F
:103DE0007A60DBB23B60F6B20027D5E90223B61851
:103DF0005F41C5E902672A8A688AA2FB00239F42C5
:103E000008BF964215D3638E03F070035BB9238E0F
:103E100013F0020FF7D0238E9BB243F002032386E8
:103E20000120BDE8F8832046104B98470020BDE8EC
:103E3000F8830120BDE8F88392B200230C4EB0470E
:103E40001343C4D10426638E03F07003002BB8D152
:103E5000238E13F0200FF6D0238E9BB243F0200365
:103E60002386A2E7C898000005320000B1380000A0
:103E70003D930000F8B50E46054600283DD0006889
:103E8000003018BF012040F219222349234B9847E4
:103E90002C682A8A0023D5E90201214FB847134331
:103EA0000CD1638E03F070034BBB238E13F0100F05
:103EB000F7D0238E9BB243F0100323862662D5E908
:103EC0000223043243F10003C5E90223288A6E8AE3
:103ED000A0FB06018B4208BF82421AD3638E03F017
:103EE00070038BB9238E13F0020FF7D0238E9BB291
:103EF00043F0020323860120F8BD0020C3E72046DB
:103F0000084B98470020F8BD2046064B98470020F4
:103F1000F8BD0120F8BD00BFC898000005320000C0
:103F20003D930000B13800002DE9F0410E46904667
:103F3000074600B30068003018BF0120184D4FF449
:103F400012722946174CA04740F24922294618F11F
:103F5000000018BF0120A04740F24A222946301C29
:103F600018BF0120A0473D8A08FB05F5A5B1042430
:103F7000DFF8348004E00020E0E726442D1B0BD05E
:103F800031463846C047AC42F7D93B8A93FBF4F23E
:103F900004FB1234E4B2F0E70120BDE8F08100BF79
:103FA000C898000005320000553D00002DE9F041A1
:103FB0000E469046074600B30068003018BF012047
:103FC000184D4FF419722946174CA04740F265224C
:103FD000294618F1000018BF0120A04740F26622D0
:103FE0002946301C18BF0120A0473D8A08FB05F573
:103FF000A5B10424DFF8348004E00020E0E7264483
:104000002D1B0BD031683846C047AC42F7D93B8AEC
:1040100093FBF4F204FB1234E4B2F0E70120BDE8B4
:10402000F08100BFC898000005320000753E000016
:1040300008B550B10068003018BF012040F27B2263
:104040000349044B9847012008BD0020F6E700BF54
:10405000C89800000532000008B550B10068003073
:1040600018BF012040F286220349044B98470120E3
:1040700008BD0020F6E700BFC89800000532000028
:1040800070B489B006466C460D4D0FCD0FC495E84F
:104090000F0084E80F00009BB3420DD0314601AB06
:1040A000012053F8042B8A4207D001300828F8D1A8
:1040B000002009B070BC70470020C0B2F9E700BF13
:1040C000E098000008B5034B984780002E3000F0C0
:1040D000FE0008BD81400000C36913F0010F09D143
:1040E000C36913F0030FFBD1036843F002030360BD
:1040F000002070476FF003007047000038B5044699
:104100000B4B984720460B4B9847011DC9B2012520
:10411000094C431CDBB2420900F01F0005FA00F015
:1041200044F8220018469942F3D1002038BD00BF60
:10413000D9400000C540000000E100E008B5026879
:10414000117E937D0B4013F0010F09D113F0040F82
:1041500009D113F0020F09D113F0800F0CD108BD63
:104160008368984708BDC368984708BD0223137643
:1041700003690021984708BD0423538380231376E5
:1041800003696FF012019847E9E7000008B5024B98
:104190001868024B984708BDC40200203D4100004A
:1041A00008B5024B1868024B984708BDC4020020AE
:1041B0003D41000008B5024B1868024B984708BD06
:1041C000C40200203D41000008B5024B1868024BB4
:1041D000984708BDC40200203D41000070B5064666
:1041E0000C4608464D4B984740B1002E00F08380A6
:1041F000002C40F089800025002005E0002E51D0E1
:10420000002C4DD0464D012040F66D124549464BDD
:104210009847002D69D0E36913F0010FFBD1E369E2
:1042200013F0030FFBD1236813F0020F60D1E36991
:1042300013F0010FFBD1236843F001032360E3690E
:1042400013F0010FFBD134602B6803F01C03082B23
:104250002AD04FF410623349201C18BF0120324B82
:1042600098472B6823F4817323F0010323606B6864
:1042700023F4383323F4107343F4003363602B7B4F
:1042800023736B7B84F830306B6803F00703002BDB
:104290000CBF012302233371EB89F380002070BD32
:1042A0001F4DA9E71E4DA7E740F614121D49201C1B
:1042B00018BF01201C4B98472B6823F4817323F00F
:1042C000010323606B6823F4083323F4107343F471
:1042D000003343F410736360AB6863626B7B84F8F4
:1042E0003030E369002BFCD1CEE76FF00C0070BDDD
:1042F0006FF0100070BD40F66D120A4900200A4BA5
:1043000098476FF00C0070BD40F66D120549012012
:10431000054B98476FF00C0070BD00BF8140000056
:10432000189900002C9900000532000038B50446A9
:104330000D46154B9847002825DB144B9D4204BFC2
:10434000134B1C6000232361E360A3602846114BDC
:104350009847011DC9B2012400F01F0204FA02F2BD
:1043600043099B0003F1604303F56143C3F88020D8
:10437000BFF34F8FBFF36F8FC3F880210130C0B2FE
:104380008142E9D1002038BDDD410000003000400D
:10439000C4020020C540000008B5014B984708BD85
:1043A0002D43000010B5044660B10068003018BF0E
:1043B000012040F6DD120449044B98472068044B65
:1043C000984710BD0020F4E72C990000053200004A
:1043D000FD40000038B50D46046860B1201C18BFD0
:1043E000012040F6F9220649064B98472DB90123D2
:1043F0002375002038BD0020F3E70123A375F8E7FB
:104400002C9900000532000008B5014B984708BD03
:10441000D5430000F8B50F4604680C4E40F60D3247
:104420003146003018BF0120094DA84740F60E3232
:104430003146201C18BF0120A8471FB9042323754B
:104440000020F8BD0423A375FAE700BF2C990000F3
:104450000532000008B5014B984708BD154400001F
:1044600038B50D46044670B10068003018BF012011
:104470004FF432620749084B984735B92368022246
:104480001A75002038BD0020F2E7236802229A75D1
:10449000F7E700BF2C9900000532000008B5014B7A
:1044A000984708BD6144000038B50D46044660B128
:1044B0000068003018BF012040F63B320449054B2C
:1044C000984723689D62002038BD0020F4E700BFB4
:1044D0002C9900000532000010B5044660B1006858
:1044E000003018BF012040F654320449044B98476D
:1044F0002368986A80B210BD0020F4E72C99000070
:104500000532000070B50D461646044668B1022912
:104510008CBF0020012040F666320549054B9847C4
:1045200004EB8504A660002070BD0020F3E700BF07
:104530002C9900000532000008B5014B984708BDD2
:104540000545000038B505460469A37A13F0010F4C
:1045500004D00123A372036803B19847637A13F070
:10456000020F05D00223A3726B680BB1284698474F
:1045700038BD000070B588B006466C46174D0FCDAB
:104580000FC495E80F0084E80F00009BB3421ED0D3
:10459000304601AA012352F8041B814218D001338E
:1045A000082BF8D100230E4A12789A4212D00C4AF6
:1045B000127D9A4208BF01200DD040F265120949D0
:1045C0000020094B98474FF0FF3008B070BD002322
:1045D000DBB2E8E7002040B2F7E700BF48990000EF
:1045E00000000020689900000532000038B505463B
:1045F0000C460846424B98472C61236913F0010F83
:10460000FBD1236913F0030FFBD1236813F0020FD2
:104610006BD1236913F0010FFBD1236843F0010331
:104620002360236913F0010FFBD100EB8003354AAF
:1046300002EB83035A682260997AE1731B89E38055
:104640000323237302F00C02082A41D0002A4FD121
:1046500000EB80032B4A02EB83039A89A2831B8A17
:10466000E383294B9C423DD0284B9C4204BF284BFE
:104670005D6000EB8003234A02EB8303B3F9023051
:10468000002B38DB5A0903F01F03012101FA03F361
:104690002032204941F82230BFF34F8FBFF36F8F94
:1046A00000EB8000174B03EB8000B0F90230002BC9
:1046B00023DB590903F01F03012202FA03F3154A11
:1046C00001F1600042F8203042F82130002038BD6E
:1046D00000EB80030B4A02EB8303DA68E2611B699B
:1046E0002362BEE70A4B1D60C3E76FF0100038BDC0
:1046F0004FF0FF3038BD002038BD002038BD00BF6E
:10470000754500000000002000140042001800421F
:10471000C802002000E100E00269136913F0030FF2
:10472000FBD1136843F002031360704702691369F9
:1047300013F0030FFBD1136823F0020313607047DB
:1047400070B50D461446066930460B4B98470B4B27
:104750008200111803EB8101CD600C614B6803F0FE
:104760000C03082B04D0ADB2B583A4B2F48370BDA2
:10477000F561346270BD00BF754500000000002087
:104780000269136913F0030FFBD11068C0F34000F6
:10479000704700207047000008B5024B1868024BB4
:1047A000984708BDC80200204545000008B5024BE7
:1047B0005868024B984708BDC802002045450000D4
:1047C0000020704738B5837C03F00F03C27C02F0F1
:1047D000070101290BD05A0102F18242102182F80F
:1047E00007115B0103F1824383F8081138BD12F011
:1047F000400F0CD0C27C6FF38612C2745A0102F1D2
:104800008242802182F80411402182F80511C27C85
:104810006FF3C302C27409495A018C180025A572AE
:10482000A57602F182436F2483F8074102F18242A8
:1048300082F808418B6E807C984738BDD0020020FA
:1048400008B5202303FA01F1C9B2837C03F00F03FA
:104850005B0103F1824383F80811034B1B6F8268ED
:104860000121807C984708BDD002002038B5847CA7
:10487000FF2C03D0C37C13F0400F00D138BDC27CA5
:104880006FF38612C274034A156F82682046A847E8
:10489000F4E700BFD002002030B583B0837C25242C
:1048A0008DF804404A248DF80540FF2B1ED0C47CAF
:1048B00014F0400F1AD003F00F04C9B1630103F1E3
:1048C0008243802583F804510B4602A90B4413F858
:1048D000041C630103F1824383F80711630103F1B0
:1048E000824383F808111146054B984703B030BD49
:1048F000630103F18243402583F80551E4E700BFDB
:104900006D48000030B583B0837C03F00F030422B0
:104910008DF8042008228DF805205A010C4691B329
:1049200002F1824191F80051C5F3021502EB041126
:10493000324A0A44917AC9B2022D2CD011F0020FEA
:1049400045D0C57C917A6FF34101917202AA22444D
:1049500012F8041C5A0102F1824282F807115B012D
:1049600003F1824383F8081105F00703012B43D1BB
:10497000C37C13F0400F3FD0D9098C423CD00022B9
:104980001F4B984738E0590101F1824191F80051DD
:1049900005F00705CAE711F0010FCFD0917A6FF348
:1049A0000001917202AA224412F8041C5A0102F179
:1049B000824282F807115B0103F1824383F80811F8
:1049C0000422211C18BF01210D4B984714E004EB71
:1049D00043010A4A02EB01120021917202AA144417
:1049E00014F8041C5A0102F1824282F807115B019B
:1049F00003F1824383F8081103B030BDD0020020D8
:104A0000994800002DE9F0410C4D05F1740405F5BD
:104A100024754FF003080A4FFF2641462046B84749
:104A2000A6740023E3741434AC42F6D16022194614
:104A30000248044B9847BDE8F08100BFD002002037
:104A40006D480000AB9600002DE9F0410546847CDE
:104A500004F00F048846002900F09F80584B03EBB8
:104A600044135869C0F30D0E2B8A40F2FF32934273
:104A700000F08D80013B98B2EF7C07F00707B8F19A
:104A8000000F05D0620102F18242022382F8073151
:104A9000A9680EEB0103AB606E68B3423FD2F61A11
:104AA000B6B2EA7C12F0200F2DD02A8A964228BF97
:104AB0001646296832461944E868424B9847EA6826
:104AC0003F4B03EB44131A613D4B03EB44135A690C
:104AD00066F30D025A615A696FF39B325A61B8F15D
:104AE000000F08D1012F0CBF4E224A22630103F1AF
:104AF000824383F80921640104F18244802384F80D
:104B00000531BDE8F081B6F5005F28BF4FF40056CF
:104B100029680B442A4A02EB44121361D4E7EB7C68
:104B200013F0100F0FD0EB7C6FF30413EB74244BD6
:104B300003EB44135A696FF30D025A615A696FF31C
:104B40009B325A61CBE7012F4FEA441404F18244AF
:104B50000CBF4B234A2384F808312A8A00EA0E034B
:104B60009A4205D000212846174B9847BDE8F081AE
:104B7000EB7C6FF38613EB74114BDB6EA968A87C9A
:104B80009847D0B9EB7C43F04003EB74EAE7EF7C45
:104B900007F0070740F2FF3074E7038A40F2FF3264
:104BA000934207D1EF7C07F007074FF0000E40F269
:104BB000FF306DE74FF0000E5CE7BDE8F08100BF0D
:104BC000D0020020959600006D4800002DE9F84FB6
:104BD0000446857C05F00F058946002956D0744BA4
:104BE00003EB45135A68C2F38D3A5F68C7F30D07AC
:104BF000BB46068A40F2FF339E4200F0BA80013E77
:104C0000B6B206EA0B0794F8138008F00708B9F16A
:104C1000000F05D06B0103F18243012283F80721C5
:104C2000E37C13F0200F0DD06268002A37D0A06813
:104C3000121A92B22368BA4228BF3A46E168184471
:104C40005C4B9847636853B3B9F1000F40D0228A98
:104C5000BA423DD9E37C6FF30413E374A3685B4469
:104C6000A360B8F1010F4FEA451303F182430CBF73
:104C70002D22252283F8082115B9E2684C4B1A60D1
:104C8000002120464C4B9847BDE8F88F068A40F239
:104C9000FF339E427BD04FF0000BDA46AFE7E37C58
:104CA00013F0100F6CD0E37C03F0EF0343F020030C
:104CB000E374E0683E496A018B188850218A5A687B
:104CC00061F39B325A605A686FF30D025A601DE01F
:104CD000A2685244A2609342C3D99B1A9BB2E17C62
:104CE00011F0200F26D0228A934228BF1346E06895
:104CF0006A012F4988502E4A02EB4512516863F32E
:104D00009B31516053686FF30D035360B9F1000F8D
:104D100008D1B8F1010F25D025226B0103F18243A0
:104D200083F809216D0105F18245402385F804319E
:104D3000BDE8F88F218A8B420AD9B3F5005F0ED8FF
:104D400023EA060321680A44690119484250D2E760
:104D50008B42F7D2E17C41F02001E174F2E74FF49D
:104D60000053EFE7124B03EB451300229A762D22F6
:104D7000D3E7C7F3090790F8138008F0070849E75D
:104D8000B9F1000F0BD1A3685344A36069E790F811
:104D9000138008F007080027BB46BA4640E7238A7D
:104DA000BB423FF657AFA3685344A36059E700BF27
:104DB000D0020020959600006D4800002DE9F843D0
:104DC0004FF082431E8CB6B246B1914D0024A5F13E
:104DD0007407DFF85892DFF85882D3E09A8B1B8B68
:104DE0009BB2134013F0040F1DD113F4007F23D1A5
:104DF00013F0800F47D113F0700F4FD113F0080F4D
:104E00006ED113F0010FE0D04FF0824340F2012247
:104E10009A839A8270221A837E4B5B6E0021042053
:104E20009847BDE8F88304224FF082439A83794B78
:104E30001B6E9847BDE8F8834FF0824340F2012291
:104E40009A839A8270221A83724B1B8903F00F0394
:104E5000032B0ED06F4B1B8D03F00F03032B08BFEA
:104E6000012207D000216B4B5B6E03209847BDE801
:104E7000F8830022674B03EB42131989C1F30A112F
:104E800000221A81EFE780224FF082439A83614B20
:104E90005B6E002105209847BDE8F8834FF0824300
:104EA00070229A839A8240F201221A835A4B93F815
:104EB000203013F0010F0DD0574A136903F410632B
:104EC000B3F5106FF9D1534B5B6E00210220984768
:104ED000BDE8F883504A136913F4807FFBD0F2E7F2
:104EE0004FF08243002483F8004108229A83702205
:104EF0009A8240F201221A83484B9847454B5B6ED9
:104F0000214601209847BDE8F88311F0100F09D120
:104F100011F0400F08D111F0200F2FD00021404B8D
:104F200098472BE0C84729E001213D4B984725E0F1
:104F300011F0400F11D111F0080F12D111F0020F32
:104F400012D103F00703012B18D111F0040F0FD178
:104F500011F0100F12D0C84710E00121304B9847D4
:104F60000CE00121C04709E001212E4B984705E0E4
:104F70000021C04702E00021294B98470134143535
:104F80001B2C42D02846AB7CFF2BF7D003F00F033D
:104F9000012199403142F1D0590101F1824101F5DD
:104FA0008071C9795B0103F1824393F8093119409B
:104FB000E4D004EB840207EB820292F8873003F01E
:104FC0004702012AA1D013F0800FB1D111F0200FB8
:104FD000D1D111F0040F0ED111F0010F0ED103F059
:104FE0000703012BCAD111F0080F0BD111F0100FDC
:104FF000C4D0C847C2E70021C047BFE701210A4B20
:105000009847BBE70121C047B8E7BDE8F88300BF78
:1050100044030020D002002000100040054A000098
:1050200041480000494A0000CD4B0000C547000040
:105030000549000008B54FF08242937813F0010F44
:10504000FBD14FF08242937813F0030FFBD14FF066
:1050500082431B7813F0020F4DD14FF082429378B8
:1050600013F0010FFBD14FF08242137843F001039C
:105070001370937813F0010FFBD1204B204A1A666E
:105080005A669A66DA661A671E4B98471E4B19686D
:10509000C1F34413C1F3822211F01F0125D01F294F
:1050A00008BF09211BB31F2B08BF19230AB3072A06
:1050B00008BF062203F01F0343EA8113120302F420
:1050C000E04213434FF082421385D37843F0030349
:1050D000D370D37843F00C03D37004231370074BC1
:1050E000536201231381002008BD0921DAE7192347
:1050F000DCE70622DEE76FF0100008BDD0020020DA
:10510000C1470000054A0000840080004FF0824340
:105110009B7813F0030F1FD14FF082431B78DBB253
:1051200013F0020F04D143F002034FF082421370D8
:105130000B4B4FF480329A604FF400329A604FF478
:1051400080229A604FF400229A6040F28D224FF044
:1051500082431A83002070476FF01000704700BF31
:1051600000E100E04FF08242138923F001031B04A9
:105170001B0C1381704740F080004FF082439872FF
:1051800070470000F0B54FFA80FE10F00F054DD0CB
:10519000BEF1000FB4BFAC1C2C4601F003012B463E
:1051A000022D47D96FF01100F0BDBEF1000F1BDBDF
:1051B00003EB4305374E56F82550002D5ED103EB27
:1051C0004303344D55F82370334DA600331905EBD6
:1051D0008303C3F88070A3F88420013183F887101B
:1051E00083F886000020F0BD03EB4305294E06EB53
:1051F00085056D6835B903EB4303264D05EB830345
:105200005F68E1E703EB4305224E06EB85056D89F8
:105210009542F0DA6FF01200F0BD6FF01300F0BDB0
:105220006FF01300F0BD6FF01200F0BD01F003014C
:105230000024234604EB8406174F07EB860696F8F6
:105240008660FF2EE9D10029AFD125B1BEF1000F54
:10525000A4BF0235EDB205EB85050F4E06EB8505C3
:1052600095F88650FF2DDBD103EB4305094E56F828
:105270002550002DD7D0BEF1000FB5DB03EB430561
:10528000044E06EB85052D89954298DA6FF01200E1
:10529000F0BD00BF7C990000D0020020F8B547B2F5
:1052A00010F00F060ED0002FB4BFB31C3346022EF1
:1052B00000D9F8BD1D46013303EB8303244A02EBFA
:1052C000830E02E0DFF894E0002505EB8503214A18
:1052D00002EB830393F88620FF2AEAD004460322D8
:1052E000F90F70461C4B984705EB8503194A02EBF2
:1052F000830393F8873003F00703012B16D0002FA8
:105300001BDB600100F1824090F8003103F0F803EC
:1053100080F800310F4BAA00511903EB81010020E6
:1053200081F88700FF2281F88620C2E7600100F142
:105330008240002380F80031ECE7760106F18246D6
:1053400096F8003103F08F0386F80031E2E700BFE2
:1053500030030020D00200209948000044030020C0
:10536000F0B446B210F00F0000F0A780002EB4BFDA
:10537000831C03460546420102F1824292F8004135
:10538000E4B2022840F2A0806FF011007DE014F03A
:10539000770F40F0898002F18242112182F80011DA
:1053A0009B4C04EB8701B1F884109A4C04EA8134D9
:1053B000B1F5007F00F2CD80B1F5807F00F212815F
:1053C000802900F20181402900F21381202900F296
:1053D0000281102900F21481082994BF00260126B9
:1053E00044EA06744460C1F30D01B8E014F0700F94
:1053F0005DD1874E9F00F91806EB810191F8871067
:10540000090101F070010C4302F1824282F800416F
:105410003B4406EB8306B6F88430C3F30D01B3F5C5
:10542000007F0FD8B3F5807F19D8802B19D8402B77
:1054300019D8202B19D8102B19D8082B94BF00236A
:10544000012300E0072341EA03734361802382F8CC
:1054500004316F4B03EB45150020A87615E00623B9
:10546000F1E70523EFE70423EDE70323EBE702234E
:10547000E9E7072143EA01734360402382F80531DD
:10548000634B03EB45150020A872F0BC7047062162
:10549000F0E70521EEE70421ECE70321EAE702212A
:1054A000E8E76FF01100F0E76FF01300EDE76FF041
:1054B0001300EAE76FF01300E7E74FF0824393F839
:1054C0000041E4B200252B4603EB8302504901EB77
:1054D000820292F88620FF2AE3D06A01881803EB43
:1054E000830701EB870191F8871001F0070101297B
:1054F0003FF44DAF002EFFF679AF14F0070FD9D16E
:10550000434E9F00F91806EB810191F8871001F0D6
:1055100007010C4302F1824282F800413B4406EB52
:105520008306B6F884103B4B03EA8133B1F5007F64
:105530009FD8B1F5807FAAD88029AAD84029AAD8B7
:105540002029AAD81029AAD8082994BF002101210E
:1055500090E744F0E0444460C1F30D01072641EABE
:1055600006714161402682F80561802182F80411AC
:10557000274F07EB45150020A872A8769C00E1187C
:1055800007EB810191F8862002F00F02D1F88050DC
:105590005201B918BD50234407EB8303B3F884408C
:1055A0004B6864F39B334B604B6860F30D034B60B7
:1055B00002F18243B02183F8041183F805611A4691
:1055C000102382F8093160E744F0A0444460C1F33D
:1055D0000D010526C3E744F040544460C1F30D01BA
:1055E0000326BCE744F0C0444460C1F30D01062625
:1055F000B5E744F080444460C1F30D010426AEE7F2
:1056000044F000544460C1F30D010226A7E700BF37
:10561000D002002000C0FF0F70B443B2DC0F10F0C6
:105620000F0008D0002BB4BF831C0346022803D907
:105630006FF0110018E00023012917D000293AD09B
:1056400003EB8303454A02EB830393F8863003F0B0
:105650000F035B0103F1824393F806211023A3405B
:105660001A4214BF0120002070BC70471025A540CD
:10567000EDB23A499E00F21801EB820292F88620C0
:1056800002F00F02500100F1824080F80551202005
:1056900000FA04F4E4B2520102F1824282F80941B4
:1056A000334401EB830393F8872042F0080283F828
:1056B00087200020D8E703EB8302284901EB820210
:1056C00092F8862002F00F02510101F1824191F817
:1056D00006511020A04005423CD0C0B281F8040120
:1056E0002020A040C5B281F8085191F8072102425C
:1056F00007D081F80751012202FA04F4E4B281F8DC
:10570000044103EB8302154800EB820292F88720E4
:1057100002F00702012A0CD003EB83030F4A02EBCD
:10572000830393F887206FF3C30283F88720002058
:105730009AE791F8062112F0300F0DD103EB8302A6
:1057400000EB820393F887206FF3C30283F887206E
:10575000002089E7002087E7002085E7D0020020AD
:1057600030B400F00F046301144AD018D5584068D3
:10577000C0F30D00022C17D8C9B103F1824393F88E
:105780000021D2B2112A15D193F8072112F0100F7F
:1057900002D1002030BC70472C686A680C604A60F7
:1057A000102283F80721F5E76FF01100F2E76FF0A0
:1057B0001100EFE76FF01200ECE700BFD00200200D
:1057C0002DE9F04F83B0037A5EB213F00F0300F0BF
:1057D000C280002EB4BF9A1C1A461446694901F1D2
:1057E0006007551C05EB850507EB850702EB820278
:1057F00001EB8202B2F8842040F2FF318A4225D0C8
:10580000551EADB241680D40022B00F29280036834
:10581000B3F1005F1CD303EB010CDFF880E1F4452A
:1058200016D813F0030F13D1002E2ADB8A4200F2A0
:105830009C804DB304EB8403524A02EB8303D3F8FC
:105840008030002B7BD04FF000080CE01546D9E7E4
:1058500004EB84034B4A02EB8303D3F88030002B24
:105860006AD04FF0010804EB8403464A02EB83033D
:1058700093F8873013F0080F09D0022003B0BDE879
:10588000F08F4FF00008EEE74FF00008EBE782469C
:1058900001A83D4B984704EB84033A4A02EB83038B
:1058A00093F8873013F0400F3CD104EB8409354B5B
:1058B00003EB890999F8873043F0400389F8873072
:1058C00001A8324B9847DAF80030C9F87430DAF89A
:1058D0000430C9F878300023C9F87C30F20F99F809
:1058E000873062F3C71368F3451389F887309AF855
:1058F0000930E3B1B5FA85F56D0904EB8404214B59
:1059000003EB840494F8873065F3041384F887303C
:10591000002E4FF000013846B4BF1D4B1D4B984779
:105920000020ABE701A8194B98470120A6E7002506
:10593000E3E76FF01100A1E76FF012009EE76FF050
:1059400011009BE76FF0120098E74168C1F3090569
:10595000114F00245BE70B4AB2F8842040F2FF317C
:105960008A42F2D00C4F00244AE704EB8403054A34
:1059700002EB8303D3F88030002BE3D04FF0010813
:1059800071E700BFD0020020212200002F2200007A
:10599000494A0000CD4B000044030020FF1F0420B3
:1059A000064B002908BF1946012803D008B9044B4B
:1059B00019667047024B5966704700BFC147000027
:1059C000D0020020094B002908BF1946034630B118
:1059D000012807D0022804BF054B19677047044B04
:1059E00099667047024BD966704700BFC1470000F7
:1059F000D002002008B5014B984708BDBD4D0000FE
:105A000008B5014B984708BDBD4D000008B5014BD6
:105A1000984708BDBD4D000008B5014B984708BD2B
:105A2000BD4D00002DE9F04182B005460C460E78D0
:105A30004B784FF48E71774A01FB03231B6923B91E
:105A4000002857D102B0BDE8F08146BB2022724B3E
:105A5000C3F8982063784FF48E716E4A01FB0323DC
:105A60001B699D4220D96D4B984702AB43F8040D4A
:105A7000684F62784FF48E7808FB027211691846FD
:105A8000674B9847637808FB03731B69ED1A9EB94F
:105A90002022614BC3F89420002DD3D02CE010229B
:105AA0005D4BC3F89820D5E728465E4B9847002EFB
:105AB00040F0AA800025EBE71022574BC3F8942052
:105AC000002DBFD04FF40042534BC3F898206378A9
:105AD0004FF48E714F4A01FB03235869B0F1FF3F29
